:060000000A128A11122809
:10000800FE00030EF7000408F8000A08F90083123E
:1000180003137F08FA000A128A114E290A128A115C
:100028001528FB01FC01FD01A001A101A201A3010A
:10003800A401A501A601A701A801A901AA0183019C
:100048000A128A1189280B1D0800362801308312EC
:100058000313A70242280130F6007608831203131F
:10006800A70742280A128A11D9200A128A113B3A94
:1000780003192F28053A03192A2842280130F600C7
:100088007608FB0703307B020318FB018312031376
:1000980087177C280716871607142008013E840056
:1000A8000A128A11B9210A128A1186007C1887134C
:1000B800071687126C282108013E84000A128A114B
:1000C800B9210A128A118600FC18871307128716AD
:1000D80007148728FE30860007168716071486013E
:1000E800FC1986157C190617071687160710872826
:1000F8007B08003A03194E28013A03195F28033A8E
:1001080003196E2887280B110800FF308316031384
:100118008700860085008312031387018601850105
:10012800831603178901880101308316031386009B
:10013800071287120710871387150516851287106F
:100148000A128A1101220A128A110A128A11E72157
:100158000A128A110A128A116A210A128A118B1745
:10016800103083120313B1003108AB000E300A12AD
:100178008A11F5210A128A11B83083120313AB00D1
:100188000B30AC000A128A1185210A128A118312D7
:10019800031327080A128A11D2210A128A1164301D
:1001A80083120313AB000030C528FB080319FD01B7
:1001B80083120313050E0139F000070CF100F10C4E
:1001C800710C0139F20072077004F3007B08F40027
:1001D8007407013EF1280310F30DFF3E031DEF28BD
:1001E8007308F5007508FD047B08023A031D2429ED
:1001F8007D083F3A03191929AA08031D07297D0814
:10020800F0007008A90002302A02031810290130F2
:10021800F0007008AA07242929087D060319242953
:100228003F30F0007008A9002429AA012908F0002D
:100238007008FD003F30F0007008A9007D08080034
:100248003F300800831203130C1D49298F018E01CA
:100258002308A501A5072208A401A4071508F00092
:10026800F1017008A2007108A3001608F000F1015E
:100278007008F100F0017008A2047108A304FC1CC6
:100288004729FC104829FC140C110C1C08007C158B
:100298000C1008000A128A1126210A128A110A1261
:1002A8008A119F210A128A110A128A1127200A121A
:1002B8008A117A0883120313FF0079088A007808E4
:1002C8008400770E8300FE0E7E0E0900831603134A
:1002D8000715831203139012101290111015901025
:1002E80010148F018E01831603130C148312031349
:1002F8000C10171517140C11831603130C150B1774
:100308000800013083120313AB020030031CAC0356
:10031800AC02FF302C06031D9329FF302B0603196E
:100328000800F93083120313AD000000AD0B9929C2
:100338009D29000085298B1C080083160313011BC7
:10034800A7290117A82901130130F00070088312AA
:100358000313A8000130F0007008A6077C1CB6291A
:100368007C10B7297C148B10080001308A0004081F
:10037800840A820700340334DB344534C1349934A9
:10038800A1342134CB340134813409343134273455
:10039800513425342D347D340D34FF348312031346
:1003A800B00030080F39AE002E08AB003008AF009F
:1003B80004300310AF0CFF3E031DDD292F080A127D
:1003C8008A11F52108008316031381110114811481
:1003D8000111011281128312031381010B118B1673
:1003E800080083120313AD002D08AC002C08A000F0
:1003F8002B08AC002C08A100080083160313061470
:100408008312031306108316031301138B100B16A4
:020418000800DA
:04400E00F1E3FFFFDC
:00000001FF
