:060000000A128A11122809
:10000800FE00030EF8000408F9000A08FA0083123B
:1000180003137F08FB000A128A11552B0A128A1152
:100028001528FC01FD018313383084004C300A1276
:100038008A11EC240A128A113830FD000430FE00BF
:100048003430FF00203084000A128A117C24830196
:100058000A128A11B3289A2883120313C108031DB0
:100068003E280130DB005B08C6000130DB005B087E
:10007800C1000800C1010800831203133D083C04B5
:10008800031D08000130DB005B08C6000130DB00FF
:100098005B08C1000C30CC000030CD005F08DB00ED
:1000A800DC015B08CE005C08CF000A128A118C21A3
:1000B8000A128A11831203134C08013ED5004D0819
:1000C8000318013E003ED600FA30D7000030D800B1
:1000D8000A128A117B23831203135608BD01BD0738
:1000E8005508BC01BC070800013083120313DB006C
:1000F8005B08C6000800013083120313DB005B08AD
:10010800C60008000230831203135F02031C0800B4
:100118000130DF0208000C30831203135F0203185A
:1001280008000130DB005B08DF0708000A128A11AB
:100138003D220A128A111F3A03193028303A03194E
:100148007F28183A031978280C3A03198F28063A99
:1001580003194028033A03198628B22808000130F9
:1001680083120313DD005D08DE00C5010130DD00E8
:100178005D08DF00FF3083160313870086008500C3
:1001880083120313870186018501831603178901EA
:1001980088010F308316031385000130860007128B
:1001A80087120710871387150516851287100A12FC
:1001B8008A11B5240A128A110A128A119A240A127B
:1001C8008A110A128A11CD240A128A110A128A1176
:1001D800A8240A128A118B1783120313CC01CC0AA4
:1001E80012300A128A11C1240A128A11E8308312C5
:1001F8000313CC000330CD000A128A111A240A1204
:100208008A1183120313C208031D05290130DD007A
:100218005D08C2000A128A112F200A128A110A12D6
:100228008A111A230A128A110A128A1123210A1220
:100238008A110A128A11A0230A128A1105297D122D
:10024800FD117D11831203135E0803196029FD1542
:100258000A30CC000030CD005F08D500D601550823
:10026800CE005608CF000A128A118C210A128A1170
:10027800831203134C08D70004300310D70DFF3E38
:10028800031D41290A30CC000030CD005F08D8009A
:10029800D9015808CE005908CF000A128A118D22B8
:1002A8000A128A11831203134C0857070A128A117B
:1002B80063240A128A1168297D15CC0113300A12A9
:1002C8008A11C1240A128A118312031345080319DB
:1002D8007A297D151030D5005508CC000E300A1249
:1002E8008A11C1240A128A11831203138312031379
:1002F8004308031908007D157D160E30D5005508F2
:10030800CC0012300A128A11C12483120313080088
:1003180083120313D201CD1F9829CC09CD09CC0A29
:100328000319CD0AD201D20ACF1FA329CE09CF09BA
:10033800CE0A0319CF0A0130D0005008D206D301E3
:10034800D4014D084C040319DA29D101D10ACD1B77
:10035800B92901300310CC0DCD0DFF3E031DAE2988
:100368000130D0005008D107AB2901300310D30D5C
:10037800D40DFF3E031DBA294D084F02031DC6299F
:100388004C084E02031CCF294C08CE024D08031C12
:10039800CF03CF02531401300310CD0CCC0CFF3E19
:1003A800031DD0290130D102031DB92952080319B0
:1003B800E229D309D409D30A0319D40A5408CD0170
:1003C800CD075308CC01CC0708000B1D0800831289
:1003D8000313C2010130F0007008C0070130F000BB
:1003E8007008FC0703307C020318FC018717302AC9
:1003F8000716871607143808013E84000A128A1166
:1004080000240A128A1186007D188713071687129E
:100418001A2A3908013E84000A128A1100240A1295
:100428008A118600FD1887130712871607143B2ABE
:10043800FE30860007168716071486017D1E262AB9
:10044800401F2C2AFD1D292A86157D1D2C2A0617DA
:100458000716871607103B2A7C08003A0319FC295F
:10046800013A03190D2A033A03191C2A3B2A0B11D6
:100478000800FC08031D432A83120313C9018312D1
:100488000313050E0139CC00070CCD00CD0C4D0C23
:100498000139CE004E074C04CF007C08D00050072D
:1004A800013E582A0310CF0DFF3E031D562A4F0860
:1004B800D1005108C9047C08023A031D8B2A490857
:1004C8003F3A0319802ACB08031D6E2A4908CC003D
:1004D8004C08CA0007304B020318772A0130CC00B9
:1004E8004C08CB078B2A4A08490603198B2A3F3048
:1004F800CC004C08CA008B2ACB014A08CC004C0817
:10050800C9003F30CC004C08CA00490808003F30F9
:10051800080083120313D201CF1F992ACE09CF09ED
:10052800CE0A0319CF0AD201D20ACD1FA02ACC09BC
:10053800CD09CC0A0319CD0A4D084C040319CD2A5C
:10054800D101D10ACD1BB42A01300310CC0DCD0D39
:10055800FF3E031DA92A0130D0005008D107A62A62
:100568004D084F02031DBA2A4C084E02031CC22A2A
:100578004C08CE024D08031CCF03CF0201300310F4
:10058800CD0CCC0CFF3E031DC32A0130D102031D44
:10059800B42A52080319D52ACE09CF09CE0A03195D
:1005A800CF0A4F08CD01CD074E08CC01CC07080073
:1005B8008B1C080083120313C70183160313011B46
:1005C800E72A0117E82A01130A128A11D8240A1205
:1005D8008A118312031344080319132B4608F500E4
:1005E8007507FE3E203E840083130008F600840A47
:1005F8000008F7000A128A11E3240A128A11760801
:100608007007F20077080318770A7107F3000130C2
:100618000A128A114C240A128A11831203137D1CB0
:10062800172B7D10182B7D148B10080083120313D1
:10063800480803192B2B0130C802C808031D2B2BAF
:100648000A128A1189240A128A1183120313831247
:10065800031346085F060319382BC808031D382BF7
:100668004B30CD004D08C8003D083C040319462B0B
:100678000130BC020030031CBD03BD023D083C0430
:100688000319C10133304702031C4F2B0130CD0041
:100698004D08C3000800C3010130CD004D08C7074D
:1006A80008000A128A11C5230A128A110A128A112D
:1006B800DC220A128A110A128A11F4240A128A11F7
:1006C8000A128A11F8240A128A110A128A11E921D7
:1006D8000A128A117B0883120313FF007A088A0022
:1006E80079088400780E8300FE0E7E0E09008312BE
:1006F8000313D901DA01551C872B5708D9070318AA
:10070800DA0A5808DA0701300310D70DD80DFF3E72
:10071800031D882B01300310D60CD50CFF3E031D9A
:100728008F2B56085504031D7F2B5A08D601D60770
:100738005908D501D507080083120313C308031D00
:10074800B72B5E08013A031DB72BC508031DB72B4D
:100758004108013A031DB72BFD1485160130CC0062
:100768004C08C4000800FD10C101C40185120A121A
:100778008A11CD24013083120313CC004C08C60023
:100788000800831203130D1C08001D080F39083ACE
:10079800031DE22B0A128A11E3240A128A11700837
:1007A800F43EF20071080318013E013EF3000030E8
:1007B8000A128A114C240A128A11E52B0A128A118C
:0A07C800D824831203130D1008005B
:1008000004308A000408840A820700340334DB348D
:100810004534C1349934A1342134CB34013481348A
:10082000093431342734513425342D347D340D349A
:100830001934FF34013083120313CC020030031C3F
:10084000CD03CD02FF304D06031D282CFF304C0692
:1008500003190800F93083120313CE000000CE0BF9
:100860002E2C322C00001A2CAF341F34A5341C342B
:1008700042341A3416341834223416342E341434D4
:100880003A34123452340E3427340C34C43409341C
:10089000BA34063440340034F400831603130D10C8
:1008A0007308831203139C0072089B009D151D1191
:1008B0009D10F408031D5E2C1D145F2C1D10831663
:1008C00003130D14080083120313D10051080F39CC
:1008D000CF004F08CC005108D00004300310D00CDA
:1008E000FF3E031D6E2C50080A128A11C124080015
:1008F0007E088A007F08820078240A128A1180000C
:10090000840A04087D0603190034FF0A0319FE0A4D
:100910007C2C831203135F0846020318932C0130CA
:10092000CC004C08C60746085F02031808000130D7
:10093000C6020800831603138111011481140111EA
:10094000011281128312031381010B118B1608000F
:10095000831203139012101290111015901010149E
:100960008F018E010C100B17080083160313061459
:100970008312031306108316031301138B100B1637
:10098000080083120313CE004E08CD004D08B800B6
:100990004C08CD004D08B9000800831603130D1054
:1009A000831203139D111D119D101D108710080047
:1009B000831603130D10831203139D111D119D1037
:1009C0001D1087100800831203130F08F101F107AF
:1009D0000E08F001F007080064008001840A040694
:1009E000031900340406ED2C831203130C080800CD
:0209F0000800FD
:04400E00F1E3FFFFDC
:00000001FF
