:060000000A128A11122809
:10000800FE00030EF9000408FA000A08FB00831238
:1000180003137F08FC000A128A11602C0A128A1145
:100028001528FD0183132030840038300A128A1104
:10003800DD2583010A128A11212883120313AE01D8
:100048000130C9004908CD000130C9004908CE0077
:10005800FF3083160313870086008500831203137D
:1000680087018601850183160317890188010F30EE
:1000780083160313850001308600071287120710C4
:100088008713871505168512871007138312031324
:1000980007130A128A11AF250A128A110A128A1145
:1000A80095250A128A110A128A11A3250A128A11A1
:1000B8000A128A11C7250A128A110A128A1183257F
:1000C8000A128A118B17123083120313C9004908C8
:1000D800B80014300A128A11BB250A128A11F430AA
:1000E80083120313B8000130B9000A128A111025CF
:1000F8000A128A110E3083120313C9004908B80086
:1001080012300A128A11BB250A128A11F43083129E
:100118000313B8000130B9000A128A1110250A1217
:100128008A11133083120313C9004908B8000E302E
:100138000A128A11BB250A128A11F430831203139A
:10014800B8000130B9000A128A1110250A128A1162
:1001580083120313B80113300A128A11BB250A123D
:100168008A11F43083120313B8000130B9000A125F
:100178008A1110250A128A11143083120313C90038
:100188004908B80000300A128A11BB250A128A11E0
:10019800F43083120313B8000130B9000A128A112F
:1001A80010250A128A11143083120313C900490852
:1001B800B80014300A128A11BB250A128A11F430C9
:1001C80083120313B8000130B9000A128A111025EE
:1001D8000A128A11831203132F08013A0319EE2811
:1001E8000130C9004908AF000A128A1129210A12F0
:1001F8008A110A128A1167230A128A110A128A11AD
:1002080058250A128A110A128A11A9230A128A1178
:100218000A128A11AD210A128A11831203132209C4
:10022800C9002309CA00C90A0319CA0A2A084907C2
:10023800CB002B0803182B0A4A07CC004C080A12DB
:100248008A116E250A128A11EE2894298312031343
:10025800AD08031D3829AC30A4000D30A5000130CD
:10026800C7004708AD000800AD010800831203135A
:1002780029082804031D0800AC30A4000D30A5008F
:100288000130C7004708AD000C30B8000030B90095
:100298004E08C700C8014708BA004808BB000A1240
:1002A8008A1117220A128A11831203133808013E91
:1002B800C10039080318013E003EC200FA30C300ED
:1002C8000030C4000A128A118624831203134208DC
:1002D800A901A9074108A801A8070800AC308312A2
:1002E8000313A4000D30A5000800AC3083120313DB
:1002F800A4000D30A50008000230831203134E023B
:10030800031C08000130CE0208000C3083120313CE
:100318004E02031808000130C7004708CE0708003E
:100328000A128A11C8220A128A111F3A03192A29A5
:10033800303A03197929183A031972290C3A031922
:100348008929063A03193A29033A03198029AC295D
:100358000800831203133212B21132112E08031946
:10036800EA29B2150A30B8000030B9004E08C100B9
:10037800C2014108BA004208BB000A128A111722BA
:100388000A128A11831203133808C30004300310B9
:10039800C30DFF3E031DCB290A30B8000030B90059
:1003A8004E08C400C5014408BA004508BB000A123B
:1003B8008A1118230A128A11831203133808430773
:1003C8000A128A116E250A128A11F2293215B80109
:1003D80014300A128A11BB250A128A1183120313D8
:1003E8004D080319042A32151030C1004108B8001D
:1003F8000E300A128A11BB250A128A1183120313BE
:1004080083120313300803190800B211321532168B
:100418001430C1004108B80012300A128A11BB25F5
:1004280083120313080083120313BE01B91F232A82
:10043800B809B909B80A0319B90ABE01BE0ABB1F2F
:100448002E2ABA09BB09BA0A0319BB0A0130BC0033
:100458003C08BE06BF01C001390838040319652AE3
:10046800BD01BD0AB91B442A01300310B80DB90DEE
:10047800FF3E031D392A0130BC003C08BD07362A5F
:1004880001300310BF0DC00DFF3E031D452A39087A
:100498003B02031D512A38083A02031C5A2A38081D
:1004A800BA023908031CBB03BB023F140130031016
:1004B800B90CB80CFF3E031D5B2A0130BD02031DB9
:1004C800442A3E0803196D2ABF09C009BF0A031947
:1004D800C00A4008B901B9073F08B801B8070800C1
:1004E8000B1D080083120313AF010130F0007008E0
:1004F800AC070130F0007008FD0703307D020318D7
:10050800FD018717BB2A0716871607142008193E0E
:1005180084000A128A1100240A128A1186003218ED
:10052800871307168712A52A2108193E84000A1284
:100538008A1100240A128A118600B218871307123A
:1005480087160714C62AFE30860007168716071472
:100558008601321EB12A2C1FB72AB21DB42A86156D
:10056800321DB72A0617071687160710C62A7D08F0
:10057800003A0319872A013A0319982A033A0319FA
:10058800A72AC62A0B110800FD08031DCE2A8312CC
:100598000313B50183120313050E0139B800070CC4
:1005A800B900B90C390C0139BA003A073804BB0054
:1005B8007D08BC003C07013EE32A0310BB0DFF3E4B
:1005C800031DE12A3B08BD003D08B5047D08023A39
:1005D800031D162B35083F3A03190B2BB708031DCB
:1005E800F92A3508B8003808B6000730370203186A
:1005F800022B0130B8003808B707162B3608350625
:100608000319162B3F30B8003808B600162BB7016F
:100618003608B8003808B5003F30B8003808B600CA
:10062800350808003F30080083120313BE01BB1FC2
:10063800242BBA09BB09BA0A0319BB0ABE01BE0AB0
:10064800B91F2B2BB809B909B80A0319B90A39080F
:1006580038040319582BBD01BD0AB91B3F2B0130C3
:100668000310B80DB90DFF3E031D342B0130BC003B
:100678003C08BD07312B39083B02031D452B3808C0
:100688003A02031C4D2B3808BA023908031CBB0375
:10069800BB0201300310B90CB80CFF3E031D4E2BF2
:1006A8000130BD02031D3F2B3E080319602BBA0918
:1006B800BB09BA0A0319BB0A3B08B901B9073A08CA
:1006C800B801B8070800831203134E08B8003807AA
:1006D800FE3E013E84000A128A1100240A128A1181
:1006E800A6000A128A1100240A128A11A7003408E7
:1006F80003198A2B0130B402B408031D8A2B0A128D
:100708008A11F1240A128A11831203138312031324
:1007180027082506031D922B260824060319992B62
:10072800B408031D992BB401B40A29082804031935
:1007380008000130A8020030031CA903A9022908F7
:100748002804031D0800AD0108001A3083120313A2
:100758003302031CB42B0130B8003808B000B92BA1
:10076800B0010130B8003808B307B008031DCE2B1C
:100778002E08013A031DCE2BCD08031DCE2B2D08C4
:10078800013A031DCE2BB21485160130B800380883
:10079800B10008004D08013A031DAE08031DD92B0E
:1007A80085120130B8003808CE00B210AD01B10191
:1007B8000A128A11C725AC3083120313A4000D3026
:0407C800A500080080
:1008000004308A000408840A82070034AC340D34B2
:10081000E9340C3427340C3480340B34DA340A34A1
:100820004F340A34A8340934013409345B340834B1
:10083000B43407340D340734673406340334DB34FE
:100840004534C1349934A1342134CB34013481345A
:10085000093431342734513425342D347D340D346A
:1008600019343734FF348B1C080083120313B3018F
:1008700083160313011B3E2C01173F2C01130A1290
:100880008A11D2250A128A1183120313310803191F
:100890005E2C0A128A11CF240A128A1183120313C2
:1008A00024087007F60025080318250A7107F700C9
:1008B00001300A128A114125831203138B1008009C
:1008C0000A128A11AB240A128A110A128A113324DD
:1008D0000A128A110A128A112A250A128A110A1288
:1008E0008A11E5250A128A110A128A1174220A1243
:1008F0008A117C0883120313FF007B088A007A08A0
:100900008400790E8300FE0E7E0E0900831203130D
:10091000C501C601411C922C4308C5070318C60A2D
:100920004408C60701300310C30DC40DFF3E031D6C
:10093000932C01300310C20CC10CFF3E031D9A2CF6
:1009400042084104031D8A2C4608C201C20745081B
:10095000C101C1070800831203130D1C08001D0804
:100960000F39083A031DC82C0A128A11CF240A1223
:100970008A117008FA3EF60071080318013E003E25
:10098000F70000300A128A1141250A128A11CB2C75
:100990000A128A11D225831203130D100800831244
:1009A00003130F08F2007208F5000E08F200720837
:1009B000F4000F0875060319E52C0F08F200720801
:1009C000F5000E08F2007208F4007508F200F30159
:1009D0007208F300F20172087404F0007308F10069
:1009E00008008312031327082502031DF92C26088B
:1009F00024020318012D0130A4070318A50A0030B2
:100A0000A50725082702031D072D24082602031821
:100A100008000130A4020030031CA503A502080051
:100A2000013083120313B8020030031CB903B9026A
:100A3000FF303906031D1E2DFF303806031908004C
:100A4000F93083120313BA000000BA0B242D282DAD
:100A50000000102D831203130C1D08002308AB01A6
:100A6000AB072208AA01AA071608A301A3071508C5
:100A7000A201A207321C3E2D32103F2D32140C1160
:100A80000800F800831603130D1077088312031370
:100A90009C0076089B009D151D119D10F808031DF4
:100AA000532D1D14542D1D10831603130D1408000F
:100AB00083120313CD01AE01051D602D8519662D2E
:100AC00007170130B8003808AE0008000713851872
:100AD00008000130B8003808CD0008008312031365
:100AE000BD003D080F39BB003B08B8003D08BC0005
:100AF00004300310BC0CFF3E031D792D3C080A1284
:100B00008A11BB250800831203139012101690114E
:100B10001015901010148F018E01831603130C14FE
:100B2000831203130C100B17080083160313811193
:100B30000114811401110112811283120313810126
:100B40000B118B160800831603130715831203136A
:100B5000171517100C11831603130C1508008316B4
:100B600003130614831203130610831603130113D1
:100B70008B100B16080083120313BA003A08B90051
:100B80003908A0003808B9003908A1000800831608
:100B900003130D10831203139D111D119D101D10C1
:100BA00087100800831603130D10831203139D1181
:100BB0001D119D101D108710080064008001840A1B
:100BC0000406031900340406DE2D831203130C1CE3
:060BD00008000C100800F3
:04400E00F1E3FFFFDC
:00000001FF
